:10000300020C1388024E0000025000000208000098
:0800130002520000020A000184
:1001C6004389207598507587808F8D8F8BD2ACD2DE
:0401D600AFD28E22F4
:100026007FFA1201C6E4F5A2850852850953E50D4B
:10003600150DAE0C7002150C4E70F3E55365097084
:1000460004E5526508705EE50945086058E50B64ED
:1000560001450A7050E5A2702775A240F50AF50B16
:10006600F508F509854E50854F51F54EF54F740E3E
:10007600254FF8E6F599054FE54F7029054E802581
:10008600E4F5A2F50AF50BF508F509854E50854FFE
:1000960051F54EF54F740E254FF8E6F599054FE5E7
:1000A6004F7002054EE55365097004E55265086018
:1000B6000302002EE5094508700302002EE50B45F4
:1000C6000A600302002EF50A750B01F54EF54FF591
:0600D60008F50902002EEE
:030023000201686F
:10016800C0E0C0D075D000C000E50B6401450A703E
:100178001BC298740E254FF8A699054FE54F7002DB
:10018800054E0509E509702F0508802BD3E54F9525
:1001980051E5506480F8E54E648098501AC299740D
:1001A8000E254FF8E6F599054FE54F7002054E0507
:0E01B80009E50970020508D000D0D0D0E03271
:030000000200DC1F
:0C00DC00787FE4F6D8FD75815302012303
:1000E800020026E493A3F8E493A34003F68001F208
:1000F80008DFF48029E493A3F85407240CC8C33319
:10010800C4540F4420C8834004F456800146F6DFE7
:10011800E4800B0102040810204080900003E47E74
:10012800019360BCA3FF543F30E509541FFEE493DC
:10013800A360010ECF54C025E060A840B8E493A3A3
:10014800FAE493A3F8E493A3C8C582C8CAC583CACE
:10015800F0A3C8C582C8CAC583CADFE9DEE780BE86
:01001B0000E4
:00000001FF
